:02000004080AE8
:1000000000000A08D8110A080000060006000501D1
:080010000402350800000000A5
:04001800CC0F0A08F7
:10001C0009480A4908B5884205D0094A824202D0EB
:10002C00121A00F08BFF0748074A0021121A00F041
:10003C0093FF064808BD00BF0000002044110A08C9
:10004C006C0000206C000020580500205805002092
:10005C0070B500F081FB0025054E064CA41BA408CE
:10006C00A54200D170BD56F8043B98470135F7E71F
:10007C0018110A0838110A0800F01BB808B500F06E
:10008C0029F8BDE8084000F029BB00F017BA00F0D1
:10009C001DBA0078B0FA80F0400970470123037054
:1000AC00704710B50446006808B100F00FFA2046FE
:1000BC0010BD08B50121052000F082FE00210F20A3
:1000CC0000F07EFE00F048FCBDE808404FF41651ED
:1000DC0000F028BC37B50F2000F083FE124C2080B6
:1000EC0000F03AFC054621880A2200F062FA284604
:1000FC0000F053FA0D4B20881A88824238BF024612
:10010C001A800B4B1988814228BF01461980FF23A6
:10011C000093002300F082FA81B2052003B0BDE801
:10012C00304000F075BE00BF7E0000207C00002037
:10013C000000002038B50025094C0A4B0320A360B1
:10014C002560A580A57100F02DF920460649074AC7
:10015C0000F0DCFE2946BDE83840012000F02AB949
:10016C00700000200000FFFFAF000A086C000020A8
:10017C0008B5024B1B685B68019308BDB00106080B
:10018C0008B5024B1B689B68019308BDB0010608BB
:10019C0008B5024B1B68DB68019308BDB00106086B
:1001AC0008B5024B1B689B6A019308BDB001060899
:1001BC0008B5024B1B681B6B019308BDB001060808
:1001CC0008B5024B1B689B6F019308BDB001060874
:1001DC0008B5024B1B685B68019308BD9C010608BF
:1001EC0008B5024B1B685B69019308BD9C010608AE
:1001FC0008B5024B1B685B6C019308BDD001060867
:10020C0008B5024B1B689B6C019308BDD001060816
:10021C0008B5024B1B689B69019308BDC401060815
:10022C0008B5024B1B685B6A019308BDC401060844
:10023C0008B5024B1B689B6A019308BDC4010608F4
:10024C0008B5024B1B68DB6A019308BDC4010608A4
:10025C0008B5024B1B681B6B019308BDC401060853
:10026C0008B5024B1B685B6B019308BDC401060803
:10027C0008B5024B1B689B6B019308BDC4010608B3
:10028C0008B5024B1B681B6C019308BDC401060822
:10029C0008B5024B1B681B6E019308BDAC01060828
:1002AC0008B5024B1B685B6E019308BDAC010608D8
:1002BC0008B5024B1B689B6E019308BDAC01060888
:1002CC0008B5024B1B68DB6E019308BDAC01060838
:1002DC0008B5024B1B681B6F019308BDAC010608E7
:1002EC0008B5024B1B685B6F019308BDAC01060897
:1002FC0008B5034B1B68D3F88030019308BD000090
:10030C00AC01060808B5024B1B68DB69019308BDFC
:10031C00B401060808B5024B1B681B6A019308BDA3
:10032C00B401060808B5024B1B681B68019308BD95
:10033C00D801060808B5024B1B685B68019308BD21
:10034C00D801060808B5024B1B681B69019308BD50
:10035C00D801060808B5024B1B685B69019308BD00
:10036C00D801060808B5024B1B689B69019308BDB0
:10037C00D801060808B5024B1B68DB69019308BD60
:10038C00D801060808B5024B1B681B6A019308BD0F
:10039C00D801060808B5024B1B689B6C019308BD7D
:1003AC00C001060808B5024B1B685B68019308BDC9
:1003BC00A401060808B5024B1B68DB6A019308BD53
:1003CC00A401060808B5034B1B68D3F890300193C1
:1003DC0008BD0000A401060808B5034B1B68D3F840
:1003EC009C30019308BD0000A401060808B5024B1F
:1003FC001B685B68019308BDC801060808B5024B71
:10040C001B689B68019308BDC801060808B5024B20
:10041C001B68DB68019308BDC801060808B5024BD0
:10042C001B681B69019308BDC801060808B5024B7F
:10043C001B685B69019308BDC801060808B5024B2F
:10044C001B689B69019308BDC801060808B5024BDF
:10045C001B68DB69019308BDC801060808B5024B8F
:10046C001B681B6A019308BDC801060808B5024B3E
:10047C001B681B6B019308BDC801060808B5024B2D
:10048C001B685B6B019308BDC801060808B5024BDD
:10049C001B681B6C019308BDC801060808B5024B0C
:1004AC001B685B6C019308BDC801060808B5024BBC
:1004BC001B68DB6B019308BDCC01060808B5024B29
:1004CC001B681B68019308BDA001060808B5024B08
:1004DC001B685B68019308BDA001060808B5024BB8
:1004EC001B685B6C019308BDA001060870B5002663
:1004FC0004460D4640F8086FFFF77AFE2846257033
:10050C00FFF700FF2046666070BD0000022200204D
:10051C0010B5084B084C1A60084B2060A080A071E5
:10052C00A360FFF73FFF2046BDE81040044A054991
:10053C0000F0ECBC8C000020800000200000FFFFCD
:10054C006C000020AF000A08F8B506460D460024E2
:10055C008F18BD420CD0336830469B6815F8011BD0
:10056C009847031E01DB1C44F3E7002C08BF1C4614
:10057C002046F8BD70B505460C46084649B100F05A
:10058C0017FD2B68024621462846BDE87040DB6803
:10059C00184770BD03689B68184738B50D21054690
:1005AC00FFF7F8FF0A2104462846FFF7F3FF204423
:1005BC0038BD0023012A98BF0A2230B58BB00C46F7
:1005CC008DF8243009A92546B4FBF2F404FB125330
:1005DC00DBB2092B94BF30333733DBB2AA4201F8BC
:1005EC00013DF0D9FFF7C6FF0BB030BD00234068CA
:1005FC001A461946FFF71ABF014B024A1A60704798
:10060C0090000020E00F0A08024B1A68024B1A6097
:10061C00704700BF04000020940000208A4210B5EF
:10062C0007D0029C401AE41A6043521A90FBF2F075
:10063C00184410BD10B58368044613B1032201465B
:10064C009847204610BD10B50446FFF7F3FF20462F
:10065C0010BD000000230348034A0449836000F0E6
:10066C0055BC00BF980000206C00002053060A08FF
:10067C00014B1860704700BF0800002008B5134BF1
:10068C0043B100F069F903681B699847002801DD44
:10069C00AFF300800E4B43B100F016FA03681B69F0
:1006AC009847002801DDAFF300800A4B0BB1AFF384
:1006BC000080094B43B100F08DF903681B69984722
:1006CC00002801DDAFF3008008BD00BF0000000072
:1006DC0000000000000000000000000008B5FFF75B
:1006EC00CDFFFFF77DFD014B186008BD24050020F0
:1006FC000248034A0349121A00F020BC0040024091
:10070C000440024040110A08002307B51A466FF056
:10071C0077010093FFF760FE03B05DF804FB000067
:10072C0007B543880A2B08D0502B0BD1094B1B68FB
:10073C004BB103B05DF804EB1847FFF7E5FF03B0CE
:10074C005DF804FB00231A466FF077010093FFF766
:10075C0043FEF4E7AC00002038B5124C00211248DF
:10076C00FFF7BCFE114D2368AB420CBF01220022E7
:10077C000F4B1A7002D0FFF7BBFF2560FFF728FD67
:10078C00044600F0F1FB0B4B13B12046AFF3008095
:10079C0000210848FFF78AFEBDE8384000210648D2
:1007AC00FFF710BE004002407D060A081E1C279A67
:1007BC00A8000020000000002D070A08704710B5A3
:1007CC000446182100F0A7FB204610BDF8B50E46D4
:1007DC00002400F10807051D17F8011D0A223046F8
:1007EC00FFF7E7FEAF42044401D12046F8BD002CD0
:1007FC00F2D02E213046FFF7CDFE0444ECE700008A
:10080C0010B50446044B1122002140F8043B00F0C3
:10081C00A3FB204610BD00BF08100A080346074A78
:10082C0010B543F8042B01F1100251F8044B91421E
:10083C0043F8044BF9D10A781A7010BD08100A0855
:10084C00024AC0E9002104220275704708100A0808
:10085C0010B59DF8084044EA0324042344EA0244FA
:10086C0044EA01644460037510BD000037B5044DC3
:10087C0005609DF818500095FFF7EAFF03B030BDF6
:10088C0008100A0841747047704708B50021007CB5
:10089C00FFF768FD40EAE07008BD08B50121007C57
:1008AC00FFF760FD40EAE07008BD08B5007CFFF77B
:1008BC0051FD20EAE07008BD08B5007CFFF742FD51
:1008CC0020EAE07008BD38B50446007C0D46FFF701
:1008DC0041FD002801DC607C28B12946207CFFF713
:1008EC0049FD20EAE07038BD007CFFF74BBD10B528
:1008FC000446142100F00FFB204610BD10B54FF438
:10090C007A73044608460021C4E90113044B207491
:10091C002360012311466374FFF704FD204610BDCC
:10092C001C100A080022007CFFF704BD10B5044619
:10093C001422002100F010FB054B20466360054B90
:10094C00E36040F2011323818123238210BD00BF99
:10095C00E0000020E101002030B50F4D87B001A868
:10096C00FFF7E4FF2978BFF35B8F11F0010410D17E
:10097C002846FFF78EFB60B1214601AA0748FFF716
:10098C00BDFF2846FFF78AFB054A0649034800F0DD
:10099C00BDFA024807B030BDB0000020B8000020FE
:1009AC006C00002095080A0810B50446142200219A
:1009BC0000F0D2FA054B20466360054BE36040F231
:1009CC00011323818123238210BD00BF620200200A
:1009DC006303002010B50F4C86B001A8FFF7E4FFAD
:1009EC002378BFF35B8FDB0710D42046FFF751FB56
:1009FC0060B1012101AA0848FFF780FF2046FFF7EC
:100A0C004DFB064A0649044800F080FA024806B03D
:100A1C0010BD00BFB4000020CC0000206C000020F2
:100A2C0095080A0870474174704708B5007CFFF7B9
:100A3C0027FC20EAE07008BD08B5007CFFF7F8FB46
:100A4C0020EAE07008BD08B5007CFFF701FC40EA25
:100A5C00E07008BD08B5007CFFF7F2FB40EAE070DF
:100A6C0008BD007CFFF7FCBB70B5467C04460D4608
:100A7C002EB12946207CBDE87040FFF7D1BB007C2D
:100A8C00FFF7FEFB0028F4DC304670BD10B50446C1
:100A9C00142100F040FA204610BD00004FF0000C6D
:100AAC0010B50446084611464FF47A72C4E901C2E7
:100ABC00044A20742260012262741A46FFF7A8FBD4
:100ACC00204610BD4C100A0838B50D4D2978BFF3DF
:100ADC005B8F11F0010411D12846FFF7DAFA68B1E7
:100AEC002146084A084B0948FFF7D8FF2846FFF76C
:100AFC00D5FA074A0749054800F008FA034838BDFB
:100B0C00E4030020E80300206C040020F004002023
:100B1C006C000020310A0A087047F8B506461546E5
:100B2C000C468F18BC4206D0336830469B6814F8CC
:100B3C00011B9847F6E72846F8BD0022007CFFF71A
:100B4C00A7BB0021007CFFF7ABBB0021007CFFF7AB
:100B5C00AFBB0021007CFFF7B3BB0021007CFFF78B
:100B6C00B7BB10B50446142100F0D5F9204610BDD2
:100B7C0010B54FF47A73044608460021C4E90113FA
:100B8C00034B114623602074FFF7B2FB204610BDC7
:100B9C007C100A08002240681146FFF73FBCF0B5F4
:100BAC00154689B011220E460446002103A800F018
:100BBC00D3F9284600F0FCF9002781B27368284667
:100BCC00009703AAFFF7E6FB30B139462046FFF742
:100BDC0037FE204609B0F0BD204603A9FFF71EFEE4
:100BEC00F7E7002240681146FFF738BC0022406846
:100BFC001146FFF743BC00224068FFF737BC0022C8
:100C0C00406881F00101FFF721BC002340681A46BF
:100C1C001946FFF713BC002240681146FFF7EEBBE4
:100C2C00002202214068FFF7F1BB002340681A46FE
:100C3C00FFF7DCBB0422024B5A60024A1A60704771
:100C4C0004050020A4100A08002340681A46FFF788
:100C5C00CDBB002202214068FFF7D8BB00224068C0
:100C6C001146FFF7CBBB002240681146FFF7D6BBFD
:100C7C00002340681A461946FFF7D8BB002340688A
:100C8C001A461946FFF7DABB00214068FFF7FEBB96
:100C9C0000214068FFF702BC0022406881F001018E
:100CAC00FFF7D4BB00224068FFF7E0BB002240688E
:100CBC001146FFF7E3BB002240681146FFF7CEBB9D
:100CCC0070B515468EB0044608A8FFF799FD1122A1
:100CDC00002103A800F040F90026284600F068F92E
:100CEC000A4B009681B25B68284603AAFFF752FBB9
:100CFC0030B131462046FFF7A3FD20460EB070BD43
:100D0C00204603A9FFF78AFDF7E700BF0405002082
:100D1C00024B034A1A6000225A6070470C050020EF
:100D2C00E0100A0810B50446806808B1FFF768FAAD
:100D3C00204610BD172870B5044601D9002070BD9F
:100D4C00A0F10D03022B0BD9012826D800F0B6F820
:100D5C000021007CFFF7C4FA80F00100C0B2EEE77E
:100D6C00134E3178BFF35B8F11F001050FD1304674
:100D7C00FFF78FF958B129460E48FFF7B7FB3046FD
:100D8C00FFF78CF90C4A0D490A4800F0BFF8094BE3
:100D9C001878FFF7BFFA0028D0D1123C012C05D8E7
:100DAC00FFF792FE007CFFF763FAD5E70120C6E758
:100DBC0014050020180500206C000020310D0A08D5
:100DCC00172838B504460D460AD8FF2908D0FFF776
:100DDC00B1FF28B129462046BDE83840FFF7D0B90D
:100DEC0038BD10B5044609289CBF0A34A4B220466D
:100DFC00FFF7A0FF50B103212046FFF7B9F90328F4
:100E0C0004D12046BDE81040FFF7D2B9002010BD38
:100E1C0038B504460D46FFF78DFFF0B1042120468E
:100E2C00FFF7A6F9042805D12046A9B2BDE8384041
:100E3C00FFF7B6B902212046FFF79AF902280CD128
:100E4C002046FFF7A5F9012801D0042805D1294631
:100E5C002046BDE83840FFF7B3B938BD002313B5C1
:100E6C00074C1A46194620460093FFF7FFFC204614
:100E7C00044A054902B0BDE8104000F047B800BF75
:100E8C00280500206C000020C9070A08002370B553
:100E9C00202543801423084E044603803146856088
:100EAC000561284600F039F831466060284600F0AC
:100EBC0034F8E060204670BD14110A0830B50F4DAF
:100ECC0087B02978BFF35B8F11F0010413D128464A
:100EDC00FFF7DFF878B101A8FFF7D8FF214601AA88
:100EEC000748FFF745FE2846FFF7D8F8054A06499C
:100EFC00034800F00BF8024807B030BD4005002055
:100F0C00440500206C000020250B0A080B46014606
:100F1C00184600F005B8FFF7BAB8FFF7B6B80000EE
:100F2C0010B504460448134620B10A460220214657
:100F3C00AFF3008010BD00BF000000000A449142D6
:100F4C0000F1FF3300D1704710B511F8014B9142FD
:100F5C0003F8014FF9D110BD03460244934200D16E
:100F6C00704703F8011BF9E738B50D4B04461D68B3
:100F7C00AB6B7BB91820FFF7A1FA0A4A0A4BA8639E
:100F8C00C0E90023094B012283600B2383810023DA
:100F9C00C0E904230022AB6B1C615A6138BD00BF51
:100FAC00080000200E33CDAB34126DE6ECDE0500EC
:100FBC00034613F8012B002AFBD1181A013870478D
:100FCC001D000A085D000A0885000A0889000A0845
:100FDC00000000006170700025592D256D2D2564D1
:100FEC005425483A254D3A2553257A00617363748C
:100FFC00696D65000000000000000000D9070A08B8
:10100C00C9070A08CB070A0800000000000000000E
:10101C0095080A08FB080A08D3080A0855050A08A7
:10102C00C5080A0897080A08A7080A08F5080A0854
:10103C00B7080A0891080A08000000000000000028
:10104C00310A0A08990A0A08750A0A0855050A0895
:10105C00450A0A08610A0A08530A0A086F0A0A08AC
:10106C00330A0A08370A0A080000000000000000D2
:10107C00250B0A086F0B0A08470B0A08270B0A08EE
:10108C004F0B0A08570B0A085F0B0A08670B0A0874
:10109C000000000000000000370C0A082D0C0A08A4
:1010AC00230C0A08A10B0A08F9050A08170C0A08F0
:1010BC00950C0A089D0C0A080B0C0A08030C0A086C
:1010CC00F90B0A08EF0B0A08AB0B0A08000000002A
:1010DC0000000000550C0A085F0C0A08690C0A088D
:1010EC00730C0A087D0C0A08890C0A08950C0A086E
:1010FC009D0C0A08A50C0A08B10C0A08B90C0A08C0
:10110C00C30C0A08CD0C0A080000000041010A08B3
:10111C0019050A0805060A0815060A0861060A08D0
:10112C00410C0A081D0D0A08690E0A08000000008F
:04113C0000000000AF
:0411400000000000AB
:1011440000100000F80F0A080C0000200000000046
:10115400000000000000000000000000000000008B
:10116400000000000000000000000000000000007B
:10117400000000000000000000000000000000006B
:10118400000000000000000000000000000000005B
:10119400000000000000000000000000000000004B
:0C11A4000000000000000000000000003F
:1011B000FFFFFFFF00000102030405060708090AFC
:1011C0000B0C0D0E0F101112131415161718191AF7
:0811D0001B1C1D1E1F2028003E
:0411D80078563412FF
:04000005080A001CC9
:00000001FF
